:020000040800F2
:1000000000200020010400084D0400084D040008F1
:1000100000000000000000000000000000000000E0
:100020000000000000000000000000004D04000877
:1000300000000000000000004D0400082D02000830
:100040004D0400084D0400084D0400084D0400084C
:100050004D0400084D0400084D0400084D0400083C
:100060004D0400084D0400084D0400084D0400082C
:100070004D0400084D0400084D0400084D0400081C
:100080004D0400084D040008000000004D04000865
:100090004D0400084D0400084D0400084D040008FC
:1000A0004D0400084D0400084D0400084D040008EC
:1000B0004D040008000000004D040008000000008E
:1000C0005FF808F180B582B000AF78600A1CFB1CB5
:1000D0001A70FB1C1B78002B06D0084B074A51698D
:1000E0007A680A435A6106E0044B044A5269796807
:1000F000C9430A405A61BD4602B080BD00100240AB
:10010000B0B582B000AF021C3960FB1D1A70FB1D38
:100110001B787F2B32D93049FB1D1B781A1C0F230B
:100120001340083B98082C4AFB1D1B781C1C0F230E
:100130002340083B9B0806339B00D3185B68FA1DDD
:100140001278141C03222240D200FF24251C954063
:100150002A1CD2431A403B689C01FF231C40FB1D14
:100160001B781D1C03232B40DB00251C9D402B1CF2
:100170001A43831D9B00CB185A6029E0174BFA1DC8
:10018000127852B292081549F81D007840B28008E2
:10019000C03080004158F81D0078041C0320204026
:1001A000C000FF24251C8540281CC0430840396836
:1001B0008C01FF210C40F91D09780D1C03212940F9
:1001C000C900251C8D40291C0143C0329200D1502A
:1001D000BD4602B0B0BDC04600ED00E000E100E069
:1001E00080B582B000AF78607A680E4B9A4201D930
:1001F000012312E00C4B7A681202120A013A5A608B
:1002000001235B42181C0321FFF77AFF064B0022F3
:100210009A60054B07221A600023181CBD4602B0E5
:1002200080BDC046FFFFFF0010E000E080B500AFDA
:100230000B4B1B685A1C0A4B1A60094B1B68181C95
:10024000FA23990000F042FB0B1C1A1C054B9A4242
:1002500004D1054B1B685A1C034B1A60BD4680BD78
:1002600014000020E70300001800002080B584B0CF
:1002700000AF7860074B1B68FB6000E0C046054B91
:100280001A68FB68D21A7B689A42F7D3BD4604B05D
:1002900080BDC0461400002080B584B000AF7860F7
:1002A000074B1B68FB6000E0C046054B1A68FB6803
:1002B000D21A7B689A42F7D3BD4604B080BDC046CF
:1002C000180000200000000090B583B000AF00F0DF
:1002D00005F9454B1B68181C01F0B8F9031C0C1CF0
:1002E000181C211C3F4B3E4A00F01EFB031C0C1C3B
:1002F000181C211C00F0F8FA031C181CFFF770FFF3
:1003000080231B03181C0121FFF7DCFE80239B02C6
:10031000181C0121FFF7D6FE344BC02292001A6050
:10032000324B01221A71314B0022DA712F4B00221D
:100330005A712E4B00229A712D4A2C4B101C191CFD
:1003400000F0A4F9294B01221A60284B00221A71EF
:100350009023DA05254B101C191C00F097F9FB1DA2
:1003600001221A700022234B1A60234B1A60FB1DD6
:10037000FA1D1278D2431A70FB1D1B78012B0ED187
:100380001B4A80239B00101C191C00F03FFA184ADE
:1003900080235B00101C191C00F046FA0DE0144A83
:1003A00080239B00101C191C00F03EFA104A802389
:1003B0005B00101C191C00F029FA9023DB05181CA7
:1003C000012100F0FFF9031C012B03D10120FFF7ED
:1003D00063FFCCE76420FFF749FFC8E7C046C0468B
:1003E0000000000000408F40000000201C000020A2
:1003F000000800481800002014000020C046C04635
:100400000C488546002103E00B4B5B5843500431F8
:100410000A480B4B42189A42F6D30A4A02E00023DC
:1004200013600432084B9A42F9D300F011F8FFF739
:100430004BFFFEE7002000203C1A000800000020CF
:10044000140000201400002024000020FEE700001B
:1004500080B500AF1B4B1B4A126801210A431A608A
:10046000184B184A5168184A0A405A60154B154AE9
:100470001168164A0A401A60124B124A1168144A4F
:100480000A401A600F4B0F4A5168124A0A405A60DC
:100490000C4B0C4AD26A0F218A43DA62094B094A93
:1004A000116B0D4A0A401A63064B064A526B012132
:1004B0008A435A63034B00229A6000F077F8BD46E6
:1004C00080BDC046001002400CB8FFF8FFFFF6FEEA
:1004D000FFFFFBFFFFFFC0FFACFEFFFF80B584B056
:1004E00000AF0023FB600023BB6000237B60002380
:1004F0003B60294B5A680C231340FB60FB68042BBC
:1005000007D0082B09D0002B30D1244B244A1A6085
:1005100030E0224B224A1A602CE01F4B5A68F0232D
:100520009B031340BB601C4B5A6880235B02134043
:100530007B60BB689B0C0233BB607B68002B05D1E2
:10054000BB68184A5A43154B1A6013E0124BDA6A1B
:100550000F23134001333B601148396800F072F9F2
:10056000031CBA685A430D4B1A6003E00B4B0C4A4C
:100570001A60C046084B5A68F02313401B090A4A08
:10058000D35CDBB2FB60054B1A68FB68DA40034BB7
:100590001A60BD4604B080BD00100240000000207B
:1005A00000127A0000093D000400002080B582B0EE
:1005B00000AF00237B6000233B60314B304A126860
:1005C000802149020A431A602D4B1A6880239B023E
:1005D00013403B607B6801337B603B68002B04D198
:1005E0007A68A023DB019A42EED1254B1A6880235A
:1005F0009B02134002D001233B6001E000233B60DB
:100600003B68012B38D11F4B11221A601C4B1C4A2E
:1006100052685A601A4B1A4A52685A60184B184A64
:100620005168194A0A405A60154B154A5268882188
:1006300049030A435A60124B114A12688021490447
:100640000A431A60C0460E4B1A6880239B0413406D
:10065000F9D00B4B0A4A526803218A435A60084B6F
:10066000074A526802210A435A60C046044B5A683E
:100670000C231340082BF9D1BD4602B080BDC04603
:100680000010024000200240FFFFC0FF80B586B08E
:1006900000AF7860396000237B6100233B61002359
:1006A000FB6000237B6185E07B690122101C984080
:1006B000031C3B613B681B683A691340FB60FA68A6
:1006C0003B699A4273D13B681B79012B03D03B688D
:1006D0001B79022B38D17B689B687A695200032111
:1006E000081C9040021CD2431A407B689A607B68C9
:1006F0009A683B685B79191C7B695B00081C984011
:10070000031C1A437B689A607B685B689BB27A69BA
:1007100092B20121081C9040021C92B2D24392B2C4
:1007200013409AB27B689A807B685B689AB23B6898
:100730009B79191C7B699BB2081C9840031C9BB2D7
:1007400013439AB27B689A807B681B687A6952006F
:100750000321081C9040021CD2431A407B681A6097
:100760007B681A683B681B79191C7B695B00081C55
:100770009840031C1A437B681A607B68DB687A69BF
:1007800092B252000321081C9040021CD2431A402E
:100790007B68DA607B68DA683B68DB79191C7B6907
:1007A0005B00081C9840031C1A437B68DA607B6975
:1007B00001337B617B690F2B00D875E7BD4606B01E
:1007C00080BDC04680B584B000AF78600A1CBB1CF9
:1007D0001A803B1C0F3300221A707B681B699BB286
:1007E000BA1C128813409BB2002B04D03B1C0F3361
:1007F00001221A7003E03B1C0F3300221A703B1CCD
:100800000F331B78181CBD4604B080BD80B582B084
:1008100000AF78600A1CBB1C1A80BB1C1A887B685E
:100820009A61BD4602B080BD80B582B000AF7860ED
:100830000A1CBB1C1A807B68BA1C12881A85BD462C
:1008400002B080BD002934D00123002210B48842B8
:100850002CD301242407A14204D2814202D20901EF
:100860001B01F8E7E400A14204D2814202D2490010
:100870005B00F8E7884201D3401A1A434C08A042B3
:1008800002D3001B5C0822438C08A04202D3001B49
:100890009C082243CC08A04202D3001BDC08224360
:1008A000002803D01B0901D00909E3E7101C10BC84
:1008B0007047002801D00020C04307B4024802A1BD
:1008C0004018029003BDC046190000000029F0D076
:1008D00003B5FFF7B9FF0EBC4243891A1847C0465B
:1008E0007047C0460000000038B50E4B0C4A041C8F
:1008F0000D1C00F013FF002804D1201C291C00F05F
:1009000071FE38BD074B064A201C291C00F034FB41
:1009100000F068FE80231B06C018F2E7C046C04600
:10092000000000000000E041F0B5564644465F4636
:100930004D46F0B41F1C0B031B0B98464B0087B0B1
:10094000041C81465B0DC80F161C9A460090002BB4
:1009500051D06B4B9A4531D08022414652030A4315
:10096000630FD2001A43674B90460025E200914680
:100970009A44002402953B031B0B9B46FD0F7B0012
:10098000311C5B0D019560D05D4A934254D08021AB
:10099000584649030143720FC9001143594A8B4617
:1009A0009B18F1000020009A04436A4003920F2C28
:1009B00000D9B1E0544EA4003459A7464046044340
:1009C0006ED1002102250824884689460295D2E787
:1009D000009C0298C34649460194022864D003282B
:1009E00000D1AFE2012800D03CE2019A002402408D
:1009F0000025A14660E0434623434AD040460028F4
:100A000000D1C4E100F094FE031E272B00DDB7E106
:100A100028210D1A211C083B4246E9409A400D1C32
:100A20001543221C9A40A8469146384B00251B1AB4
:100A30009A46002402959EE75A4616430320002E4C
:100A4000B1D1B34600210220ADE75A4632431BD054
:100A50005B46002B00D18EE1584600F069FE272846
:100A600000DD81E12822171A011C321C08395B467F
:100A7000FA408B40171C1F43331C8B40BB46191C8C
:100A8000224B1B1A00208EE70027BB4600210120C5
:100A900089E70020012504248046814602956AE703
:100AA00003250C24029566E7019C0394039D012213
:100AB0002A400024124DA146002000212403260BC9
:100AC0000C0D2405124B34432D0523402B435B00B2
:100AD0005B08D207191C4846114307B03CBC90463E
:100AE0009946A246AB46F0BD01235B420022094C69
:100AF0009946034DE0E700240025A146DCE7C04607
:100B0000FF07000001FCFFFFFC1900080DFCFFFFC0
:100B1000FFFF0F80FFFF0F005546ED1A0495D845E3
:100B200000D953E100D14EE1049C0025013C4E4622
:100B300004944746A946584603020C0E1C4309027A
:100B4000250C23041B0C0091381C291C0193FFF772
:100B500079FE019983464143381C8A46291CFFF7D8
:100B6000B5FE330C090419438A450CD95B460919B3
:100B7000013B8C4200D947E18A4500D844E102227A
:100B80005242934409195346CB1A181C291C984603
:100B9000FFF758FE071C0198291C784382464046FF
:100BA000FFF794FE36040B04360C33439A4509D9FB
:100BB0001B197A1E9C4200D924E19A4500D821E1F4
:100BC000023F1B195E4632041743380CBB46009E99
:100BD000009F51463F0C32045B1A5946BA46120C2C
:100BE0000F043F0C904651467A434F4341464143E0
:100BF00056467043CF19160CBE19B14202D9802750
:100C00007F02C019310C12043604120C4018B618B9
:100C1000834200D2C4E000D1BEE0191A4846861BC8
:100C2000B145BF417F42CF1BA74200D113E1291C30
:100C3000381CFFF707FE019902904143381C894692
:100C4000291CFFF743FE330C0904194389450CD9CD
:100C5000029B0919013B8C4200D9FFE0894500D86D
:100C6000FCE0029F0919023F02974F46CF1B381C38
:100C7000291C0597FFF7E6FD071C0198291C7843FE
:100C800081460598FFF722FE36040904360C0E4310
:100C9000B14509D936197B1EB44200D9E0E0B1450F
:100CA00000D8DDE0023F3619029D4946761A290434
:100CB00039430B0457460A0C1B0C40464546584323
:100CC00055437B437A43EB18070CDB199D4202D94D
:100CD00080256D0252191D0C00041B04000C5219D2
:100CE0001B18964235D300D1FCE001231943049E22
:100CF000994FF519002D00DCA1E0480709D00F231A
:100D00000B40042B05D00B1D8B42894149428B447B
:100D1000191C5A46D20107D5904B5C46049E802789
:100D20001C40FF00A346F5198D4B9D427ADD039CC4
:100D30000122224000248B4DA146BDE680242403DD
:100D4000474627424CD13C432403240B009A854D4F
:100D5000B2E63619481EB4425ED9011C9642C4D18F
:100D6000009E9E42C1D1C2E7031C283B311C994022
:100D70008B46002184E6301C00F0DAFC20306EE661
:100D8000283B211C99400022884691464DE6201CB4
:100D900000F0CEFC203037E60021B14500D33DE71E
:100DA000009F5A46B944B945BF417F423F19FB18DD
:100DB000013A9C421ED2984200D97EE000D1B5E0B3
:100DC000191A93462AE7894500D8ADE648464646B3
:100DD00042467708D3074608C0071E438146AAE665
:100DE0005846204212D1044324032A1C240B89466E
:100DF0005C4D61E6A342E3D1009F4F45DBD9211A48
:100E000093460BE7171CDDE69B46BCE63C432403F8
:100E1000240B009A534D4FE6B24259D800D18AE0D4
:100E2000011C62E75F46C9087B07039E0B437C02F7
:100E30006D0501229946240B6D0D32403CE64A4B6C
:100E4000049FDB1B382B10DD039C01222240002471
:100E50000025A14630E60121494248E7029304E714
:100E60001F1C21E7019C039441E71F2B40DC3F48F6
:100E7000049F0C1C3A1858469140DC409040204397
:100E80000A1C511E8A41011C11435A46DA40131CA8
:100E9000480709D00F220A40042A05D00A1D8A42B9
:100EA000894149425B18111C1A0234D5039C012266
:100EB000224000240125A146FEE5009F022149426F
:100EC000B9448B44B945894149420919CB18A4E674
:100ED000009D881E6900A942AD416D422C1936194A
:100EE00000913AE7002B00D033E70024009437E765
:100EF0001F4A049C5D46121BD5402A1C202B1FD084
:100F00001C4E5F46A3199F403B1C19434B1E994141
:100F100011430023BCE75A07C9080A43039F9146BF
:100F20005B0201221C0B3A400025C5E54E45C4D8A2
:100F30009346002172E6009F9F42C9D3011C0FE730
:100F40000023E2E7802424035F463C432403240B70
:100F5000019A8946034DAFE5FF030000FFFFFFFE46
:100F6000FE070000FF07000002FCFFFF1E04000058
:100F7000E2FBFFFF3E040000F8B55F4656464446DC
:100F80004D46F0B40C034D00CF0F610A440F2143CE
:100F9000C4001803DE0F8046B44646465800760A61
:100FA000530F3343D600D14A6D0DBA46400DB346B8
:100FB000904200D1F5E062460126724094466745B2
:100FC00000D1ABE02F1A002F00DC11E100283ED148
:100FD0005846184300D0F1E0600700D197E00F2396
:100FE0002340042B00D122E1221DA242A4416442ED
:100FF000802309191B04012750460B400740141C8D
:10100000002B00D179E0B94B01359D4200D10BE1B5
:10101000B74BE40819404807490204430B0B002072
:1010200000211B031A0B0B0D6D051B0513436A08EA
:10103000B04DFF071D4015436D006D08291C394355
:10104000201C3CBC90469946A246AB46F8BDA7483A
:101050008542C1D0802000040343382F00DDFDE02D
:101060001F2F00DD31E12020C01B1A1C5E4682408C
:10107000FE40324394465A468240101C421E904124
:10108000FB40624602431F1CA21A9442A4416442E0
:10109000C91B091B141C0A029ED549024F0A002FC6
:1010A00000D1D6E0381C00F043FB021C083A1F2A8E
:1010B00000DDC3E02821231C091A9740CB401F43C1
:1010C0009440954200DDC0E0551B691C1F2900DDDE
:1010D000EAE01F22551B3B1C221CAB40CA40AC401F
:1010E000651EAC411343CF401C43391C002573E7F8
:1010F000082481497D4D002764427C4B4807E40861
:101100000443C9089D4250D009030B0B87E7802395
:101110001B04012752460B40174071E72A1A9446D8
:10112000002A00DCA1E0002854D07048854200D19C
:1011300052E78020000403436046382800DD10E1B8
:101140001F2800DD59E162462020801A1E1C8640BF
:10115000B1465E46D6404A4632435E468640904699
:10116000301C421E9041424602436046C340121961
:10117000A242A441644259180919141C080200D45F
:101180002AE75A4B01359D4200D133E1584B6008A4
:101190001940012323401C1C0443CB071C4349086E
:1011A0001AE71E4300D00AE705E7231C0B433BD098
:1011B00080231B030B431B031B0B30E7013F002F56
:1011C0006DD15E46A21B9442A4416442C91A091B18
:1011D000141C60E75846184300D1FDE6012676420C
:1011E000B4446046002800D0D2E05E463219BFE722
:1011F000002F00D082E0681C4005400D012800DC73
:10120000EAE05A46A21A9442BF41C81A7F42C71B5D
:101210003E0200D49AE05846041BA3459241591A55
:1012200052428F1AE2463AE700230024F7E6802371
:101230001B04012756460B403740E1E6271C28389F
:1012400087400024954200DC3EE72949AD1A394029
:10125000C2E6201C00F06CFA203026E75A461A43FA
:10126000531E9A41D2B200270EE7002A00D0E0E0D8
:10127000681C4605760D012E00DC92E01B4DA8424D
:1012800000D1F7E05E463219A242A44164425918E7
:101290000919CC07520814434908051C9CE6134859
:1012A000854200D0D9E697E62B1C1F3B3E1CDE4052
:1012B000331C202971D03F22551BAF403C43601E98
:1012C00084411C430021002586E6381C20381E1C62
:1012D000C640301C202F62D04022D71BBB405A464C
:1012E0001A43531E9A4102430027CDE6FF07000030
:1012F000FFFF7FFFFFFF0F80FFFF7F00002D37D034
:10130000B64DA84200D18FE080252D047F422943AD
:10131000382F00DDA8E01F2F00DD24E12025ED1B84
:101320000E1CAE40B046261CFE404246AC40164362
:10133000651EAC413443F9405A46141BA345924103
:101340005B1A5242991A051CE246A4E6131C3B4361
:10135000141C002B00D0A2E6002700210024002549
:10136000CBE65A461A43531E9A41D2B20023FEE6F8
:101370000D1C254358D0FF43002F51D15A46141B52
:10138000A3459241591A5242891A051CE24682E647
:101390009248854200D0CFE61EE600278EE7002364
:1013A0009DE7081C2043002D00D0C2E0002800D19A
:1013B000EFE05846184300D10EE658460219A24203
:1013C000A441644259180919141C0A0200D403E606
:1013D000834B01251940FFE5081C2043002D38D11F
:1013E00000286FD15946194303D0191C5C46E246C8
:1013F000F2E50027002100247FE6604620381A1C11
:10140000C2406646101C202E00D1AAE04022921B4A
:1014100093405A461A43531E9A4102430023A6E6BC
:101420006E4DA84200D073E7191C5C46051CE246CD
:10143000D2E5002D22D10D1C254376D0D543002DB9
:1014400070D15C445C459241591852428918051C80
:1014500094E600284CD15946194300D148E6191C9E
:101460005C46E2465D4DB7E50C43611E8C41E4B23B
:10147000002161E7051C002100243EE6574DA842EB
:1014800053D05542802216043143382D7BDC1F2D6A
:1014900000DD8CE02022561B0A1CB446B240261CFC
:1014A000EE403243904662469440661EB441424646
:1014B0001443E9405C445C459241CB185242991870
:1014C000051C5BE65846184300D185E55E46A71B20
:1014D000BC429241C81A5242801A060260D5584650
:1014E000041BA3459241591A5242891AE24673E5F8
:1014F0005846184333D04807E40804438020C908FD
:101500000003014208D0DD08054205D15946CA084A
:101510005C071443291CE246630FC9001943E40029
:101520002E4D59E52D4A9042AFD1191C5C46051C41
:1015300052E5002830D05846184310D0802548077F
:10154000E408C9082D0304432942E5D0D8082842FD
:10155000E2D15D46EA085C071443011CDCE71F4D3D
:101560003AE5002355E73D1C203D0E1CEE40351C9E
:10157000202F2ED04026F71BB9400C43611E8C4112
:101580002C430021D8E60C43611E8C41E4B20021BB
:1015900090E7191C5C461FE5191C5C460F4D1BE5C6
:1015A000031C3B4300D124E7011C3C1C14E520260E
:1015B000764276190A1CF2409046202D0BD0402628
:1015C000751BA9400C43611E8C4145462C430021EC
:1015D00070E70021D1E70021F4E7C046FF070000D3
:1015E000FFFF7FFF70B50B1C124C09030E0B590057
:1015F000021C490DDD0F0020A14211DD0E48814281
:101600000FDC8020400306430C48401A1F280BDDE6
:101610000B4A521AD640321C5042002D00D1101CE9
:1016200070BD084BE818FBE7074BC240C9188E4055
:101630003243F1E7FE0300001D0400003304000004
:1016400013040000FFFFFF7FEDFBFFFF10B5041E3A
:1016500028D000F06DF8154A121A0A2815DD0B384B
:10166000844024035205240B520D00230020002146
:101670002403181C0B0D240B1B0523430C4C1205D3
:101680001C4014436400610810BD031C1533211C69
:1016900099400B1C0B21081AC44024035205240B4B
:1016A000520DE3E7002200240023DFE71E040000C0
:1016B000FFFF0F808446101C62468C46191C63464F
:1016C00000E0C0461FB500F015F9002801D4002144
:1016D000C8421FBD10B500F049F84042013010BDAE
:1016E00010B500F007F9002801DB002010BD012033
:1016F00010BDC04610B500F0FDF8002801DD002047
:1017000010BD012010BDC04610B500F079F80028CA
:1017100001DC002010BD012010BDC04610B500F056
:101720006FF8002801DA002010BD012010BDC0466E
:101730001C2101231B04984201D3000C10391B0A01
:10174000984201D3000A08391B09984201D30009C5
:10175000043902A2105C40187047C046040302021C
:10176000010101010000000000000000F0B55F462B
:1017700056464D464446F0B40D1C041C8046E80F06
:10178000814618030F03000B3F0B83B084461B48B0
:10179000009749005E00DF0F490D9246760DBB466B
:1017A00081420CD01548864210D00120B14215D09C
:1017B00003B03CBC90469946A246AB46F0BD009FA4
:1017C00001202743F4D10D488642EED16046024302
:1017D0000120002AECD10120B142E9D1009B6345F0
:1017E000E6D1D045E4D1D94506D00029E0D11C434B
:1017F000201C441EA041DBE70020D9E7FF070000C2
:10180000F0B55F4656464D464446F0B4CD0FDE0F68
:10181000AC461D032D0BB146354E0F034C00AB46B5
:101820005D0080463F0B640D92466D0DB44231D091
:101830002F4EB54234D0002C0ED1384341424141A5
:10184000081C002D0BD0002919D1CC452CD06646A0
:10185000002E17D1012017E0002DF6D1281C594683
:101860000A4353425341002806D1002BEDD0654670
:101870000120002D08D005E00020002B04D14B46AC
:10188000002BE7D1012040423CBC90469946A2463D
:10189000AB46F0BD3E1C0643CAD002204042F3E7EF
:1018A0005E461643C7D0F8E7AC4205DC09DA63466A
:1018B000002BE7D00120E7E761460029E2D10120B3
:1018C000E2E75F4508D80CD000205F45DCD26646D1
:1018D000002ED7D00120D7E76546002DD2D10120B8
:1018E000D2E7D045F8D80020D045F0D3CCE7C046A9
:1018F000FF070000F0B556464D4644465F46F0B43B
:101900000D1C83B0041C0190E80F814618030F03DF
:10191000000B3F0B84463848009749005E00DF0FFC
:10192000490D9246760DB846814233D03248864200
:1019300035D0002917D0002E1ED1341C67463A43FB
:1019400053425341002C1ED00020002B04D14046AE
:10195000002816D10120404203B03CBC9046994675
:10196000A246AB46F0BD0098044360426041041CAF
:10197000002EE3D00028EAD1C14515D04F46002FF4
:10198000E8D10120E8E7002BF6D04B460120002BE0
:10199000E2D0DFE7009F02202743DDD1C6E767469C
:1019A00002201743D8D1C4E7B14204DD48460028DD
:1019B000D0D10120D0E7B14204DA4B46002BC9D088
:1019C0000120C9E7009F674509D80DD0009F00207E
:1019D0006745C1D24F46002FBCD00120BCE74B4623
:1019E000002BB7D10120B7E701985045F7D8019BEC
:1019F00000205345EED3AFE7FF070000180B0008A7
:101A0000AC0A0008F60A0008DA090008F60A00081D
:101A1000E80A0008F60A0008DA090008AC0A00081B
:101A2000AC0A0008E80A0008DA090008D009000832
:0C1A3000D0090008D00900083C0D000897
:101A3C00006CDC0200000000000000000102030446
:041A4C000607080978
:0400000508000000EF
:00000001FF
